{
  "_format": "hh-sol-artifact-1",
  "contractName": "ERC721WithContractWideRoyalties",
  "sourceName": "contracts/mocks/ERC721WithContractWideRoyalties.sol",
  "abi": [
    {
      "inputs": [
        {
          "internalType": "string",
          "name": "name_",
          "type": "string"
        },
        {
          "internalType": "string",
          "name": "symbol_",
          "type": "string"
        }
      ],
      "stateMutability": "nonpayable",
      "type": "constructor"
    },
    {
      "anonymous": false,
      "inputs": [
        {
          "indexed": true,
          "internalType": "address",
          "name": "owner",
          "type": "address"
        },
        {
          "indexed": true,
          "internalType": "address",
          "name": "approved",
          "type": "address"
        },
        {
          "indexed": true,
          "internalType": "uint256",
          "name": "tokenId",
          "type": "uint256"
        }
      ],
      "name": "Approval",
      "type": "event"
    },
    {
      "anonymous": false,
      "inputs": [
        {
          "indexed": true,
          "internalType": "address",
          "name": "owner",
          "type": "address"
        },
        {
          "indexed": true,
          "internalType": "address",
          "name": "operator",
          "type": "address"
        },
        {
          "indexed": false,
          "internalType": "bool",
          "name": "approved",
          "type": "bool"
        }
      ],
      "name": "ApprovalForAll",
      "type": "event"
    },
    {
      "anonymous": false,
      "inputs": [
        {
          "indexed": true,
          "internalType": "address",
          "name": "from",
          "type": "address"
        },
        {
          "indexed": true,
          "internalType": "address",
          "name": "to",
          "type": "address"
        },
        {
          "indexed": true,
          "internalType": "uint256",
          "name": "tokenId",
          "type": "uint256"
        }
      ],
      "name": "Transfer",
      "type": "event"
    },
    {
      "inputs": [
        {
          "internalType": "address",
          "name": "to",
          "type": "address"
        },
        {
          "internalType": "uint256",
          "name": "tokenId",
          "type": "uint256"
        }
      ],
      "name": "approve",
      "outputs": [],
      "stateMutability": "nonpayable",
      "type": "function"
    },
    {
      "inputs": [
        {
          "internalType": "address",
          "name": "owner",
          "type": "address"
        }
      ],
      "name": "balanceOf",
      "outputs": [
        {
          "internalType": "uint256",
          "name": "",
          "type": "uint256"
        }
      ],
      "stateMutability": "view",
      "type": "function"
    },
    {
      "inputs": [
        {
          "internalType": "uint256",
          "name": "tokenId",
          "type": "uint256"
        }
      ],
      "name": "getApproved",
      "outputs": [
        {
          "internalType": "address",
          "name": "",
          "type": "address"
        }
      ],
      "stateMutability": "view",
      "type": "function"
    },
    {
      "inputs": [
        {
          "internalType": "address",
          "name": "owner",
          "type": "address"
        },
        {
          "internalType": "address",
          "name": "operator",
          "type": "address"
        }
      ],
      "name": "isApprovedForAll",
      "outputs": [
        {
          "internalType": "bool",
          "name": "",
          "type": "bool"
        }
      ],
      "stateMutability": "view",
      "type": "function"
    },
    {
      "inputs": [
        {
          "internalType": "address",
          "name": "to",
          "type": "address"
        }
      ],
      "name": "mint",
      "outputs": [],
      "stateMutability": "nonpayable",
      "type": "function"
    },
    {
      "inputs": [
        {
          "internalType": "address[]",
          "name": "recipients",
          "type": "address[]"
        }
      ],
      "name": "mintBatch",
      "outputs": [],
      "stateMutability": "nonpayable",
      "type": "function"
    },
    {
      "inputs": [],
      "name": "name",
      "outputs": [
        {
          "internalType": "string",
          "name": "",
          "type": "string"
        }
      ],
      "stateMutability": "view",
      "type": "function"
    },
    {
      "inputs": [
        {
          "internalType": "uint256",
          "name": "tokenId",
          "type": "uint256"
        }
      ],
      "name": "ownerOf",
      "outputs": [
        {
          "internalType": "address",
          "name": "",
          "type": "address"
        }
      ],
      "stateMutability": "view",
      "type": "function"
    },
    {
      "inputs": [
        {
          "internalType": "uint256",
          "name": "",
          "type": "uint256"
        },
        {
          "internalType": "uint256",
          "name": "value",
          "type": "uint256"
        }
      ],
      "name": "royaltyInfo",
      "outputs": [
        {
          "internalType": "address",
          "name": "receiver",
          "type": "address"
        },
        {
          "internalType": "uint256",
          "name": "royaltyAmount",
          "type": "uint256"
        }
      ],
      "stateMutability": "view",
      "type": "function"
    },
    {
      "inputs": [
        {
          "internalType": "address",
          "name": "from",
          "type": "address"
        },
        {
          "internalType": "address",
          "name": "to",
          "type": "address"
        },
        {
          "internalType": "uint256",
          "name": "tokenId",
          "type": "uint256"
        }
      ],
      "name": "safeTransferFrom",
      "outputs": [],
      "stateMutability": "nonpayable",
      "type": "function"
    },
    {
      "inputs": [
        {
          "internalType": "address",
          "name": "from",
          "type": "address"
        },
        {
          "internalType": "address",
          "name": "to",
          "type": "address"
        },
        {
          "internalType": "uint256",
          "name": "tokenId",
          "type": "uint256"
        },
        {
          "internalType": "bytes",
          "name": "_data",
          "type": "bytes"
        }
      ],
      "name": "safeTransferFrom",
      "outputs": [],
      "stateMutability": "nonpayable",
      "type": "function"
    },
    {
      "inputs": [
        {
          "internalType": "address",
          "name": "operator",
          "type": "address"
        },
        {
          "internalType": "bool",
          "name": "approved",
          "type": "bool"
        }
      ],
      "name": "setApprovalForAll",
      "outputs": [],
      "stateMutability": "nonpayable",
      "type": "function"
    },
    {
      "inputs": [
        {
          "internalType": "address",
          "name": "recipient",
          "type": "address"
        },
        {
          "internalType": "uint256",
          "name": "value",
          "type": "uint256"
        }
      ],
      "name": "setRoyalties",
      "outputs": [],
      "stateMutability": "nonpayable",
      "type": "function"
    },
    {
      "inputs": [
        {
          "internalType": "bytes4",
          "name": "interfaceId",
          "type": "bytes4"
        }
      ],
      "name": "supportsInterface",
      "outputs": [
        {
          "internalType": "bool",
          "name": "",
          "type": "bool"
        }
      ],
      "stateMutability": "view",
      "type": "function"
    },
    {
      "inputs": [],
      "name": "symbol",
      "outputs": [
        {
          "internalType": "string",
          "name": "",
          "type": "string"
        }
      ],
      "stateMutability": "view",
      "type": "function"
    },
    {
      "inputs": [
        {
          "internalType": "uint256",
          "name": "tokenId",
          "type": "uint256"
        }
      ],
      "name": "tokenURI",
      "outputs": [
        {
          "internalType": "string",
          "name": "",
          "type": "string"
        }
      ],
      "stateMutability": "view",
      "type": "function"
    },
    {
      "inputs": [
        {
          "internalType": "address",
          "name": "from",
          "type": "address"
        },
        {
          "internalType": "address",
          "name": "to",
          "type": "address"
        },
        {
          "internalType": "uint256",
          "name": "tokenId",
          "type": "uint256"
        }
      ],
      "name": "transferFrom",
      "outputs": [],
      "stateMutability": "nonpayable",
      "type": "function"
    }
  ],
  "bytecode": "0x60806040523480156200001157600080fd5b5060405162001aa238038062001aa28339810160408190526200003491620001bf565b8151829082906200004d9060009060208501906200006e565b508051620000639060019060208401906200006e565b505050505062000279565b8280546200007c9062000226565b90600052602060002090601f016020900481019282620000a05760008555620000eb565b82601f10620000bb57805160ff1916838001178555620000eb565b82800160010185558215620000eb579182015b82811115620000eb578251825591602001919060010190620000ce565b50620000f9929150620000fd565b5090565b5b80821115620000f95760008155600101620000fe565b600082601f83011262000125578081fd5b81516001600160401b038082111562000142576200014262000263565b6040516020601f8401601f19168201810183811183821017156200016a576200016a62000263565b604052838252858401810187101562000181578485fd5b8492505b83831015620001a4578583018101518284018201529182019162000185565b83831115620001b557848185840101525b5095945050505050565b60008060408385031215620001d2578182fd5b82516001600160401b0380821115620001e9578384fd5b620001f78683870162000114565b935060208501519150808211156200020d578283fd5b506200021c8582860162000114565b9150509250929050565b6002810460018216806200023b57607f821691505b602082108114156200025d57634e487b7160e01b600052602260045260246000fd5b50919050565b634e487b7160e01b600052604160045260246000fd5b61181980620002896000396000f3fe608060405234801561001057600080fd5b506004361061010b5760003560e01c80636a627842116100a257806395d89b411161007157806395d89b4114610236578063a22cb4651461023e578063b88d4fde14610251578063c87b56dd14610264578063e985e9c5146102775761010b565b80636a627842146101dd57806370a08231146101f05780638c7ea24b14610210578063927f59ba146102235761010b565b806323b872dd116100de57806323b872dd146101835780632a55205a1461019657806342842e0e146101b75780636352211e146101ca5761010b565b806301ffc9a71461011057806306fdde0314610139578063081812fc1461014e578063095ea7b31461016e575b600080fd5b61012361011e3660046110e7565b61028a565b604051610130919061121d565b60405180910390f35b61014161029d565b6040516101309190611228565b61016161015c36600461111f565b61032f565b60405161013091906111b3565b61018161017c366004611010565b61037b565b005b610181610191366004610ee3565b610413565b6101a96101a4366004611137565b61044b565b604051610130929190611204565b6101816101c5366004610ee3565b6104a0565b6101616101d836600461111f565b6104bb565b6101816101eb366004610e97565b6104f0565b6102036101fe366004610e97565b610523565b604051610130919061165d565b61018161021e366004611010565b610567565b610181610231366004611039565b610575565b6101416105ec565b61018161024c366004610fd6565b6105fb565b61018161025f366004610f1e565b6106c9565b61014161027236600461111f565b610708565b610123610285366004610eb1565b61078b565b6000610295826107b9565b90505b919050565b6060600080546102ac9061171e565b80601f01602080910402602001604051908101604052809291908181526020018280546102d89061171e565b80156103255780601f106102fa57610100808354040283529160200191610325565b820191906000526020600020905b81548152906001019060200180831161030857829003601f168201915b5050505050905090565b600061033a826107de565b61035f5760405162461bcd60e51b8152600401610356906114e7565b60405180910390fd5b506000908152600460205260409020546001600160a01b031690565b6000610386826104bb565b9050806001600160a01b0316836001600160a01b031614156103ba5760405162461bcd60e51b8152600401610356906115cb565b806001600160a01b03166103cc6107fb565b6001600160a01b031614806103e857506103e8816102856107fb565b6104045760405162461bcd60e51b8152600401610356906113c2565b61040e83836107ff565b505050565b61042461041e6107fb565b8261086d565b6104405760405162461bcd60e51b81526004016103569061160c565b61040e8383836108f2565b604080518082019091526006546001600160a01b038116808352600160a01b90910462ffffff166020830181905290916000916127109061048c90866116bc565b61049691906116a8565b9150509250929050565b61040e838383604051806020016040528060008152506106c9565b6000818152600260205260408120546001600160a01b0316806102955760405162461bcd60e51b815260040161035690611469565b60006007549050610511828260405180602001604052806000815250610a1f565b61051c816001611690565b6007555050565b60006001600160a01b03821661054b5760405162461bcd60e51b81526004016103569061141f565b506001600160a01b031660009081526003602052604090205490565b6105718282610a52565b5050565b60075460005b82518110156105e5576105c58382815181106105a757634e487b7160e01b600052603260045260246000fd5b60200260200101518360405180602001604052806000815250610a1f565b816105cf81611759565b92505080806105dd90611759565b91505061057b565b5060075550565b6060600180546102ac9061171e565b6106036107fb565b6001600160a01b0316826001600160a01b031614156106345760405162461bcd60e51b81526004016103569061133f565b80600560006106416107fb565b6001600160a01b03908116825260208083019390935260409182016000908120918716808252919093529120805460ff1916921515929092179091556106856107fb565b6001600160a01b03167f17307eab39ab6107e8899845ad3d59bd9653f200f220920489ca2b5937696c31836040516106bd919061121d565b60405180910390a35050565b6106da6106d46107fb565b8361086d565b6106f65760405162461bcd60e51b81526004016103569061160c565b61070284848484610ac7565b50505050565b6060610713826107de565b61072f5760405162461bcd60e51b81526004016103569061157c565b6000610739610afa565b905060008151116107595760405180602001604052806000815250610784565b8061076384610b0c565b604051602001610774929190611184565b6040516020818303038152906040525b9392505050565b6001600160a01b03918216600090815260056020908152604080832093909416825291909152205460ff1690565b60006001600160e01b0319821663152a902d60e11b1480610295575061029582610c27565b6000908152600260205260409020546001600160a01b0316151590565b3390565b600081815260046020526040902080546001600160a01b0319166001600160a01b0384169081179091558190610834826104bb565b6001600160a01b03167f8c5be1e5ebec7d5bd14f71427d1e84f3dd0314c0f7b2291e5b200ac8c7c3b92560405160405180910390a45050565b6000610878826107de565b6108945760405162461bcd60e51b815260040161035690611376565b600061089f836104bb565b9050806001600160a01b0316846001600160a01b031614806108da5750836001600160a01b03166108cf8461032f565b6001600160a01b0316145b806108ea57506108ea818561078b565b949350505050565b826001600160a01b0316610905826104bb565b6001600160a01b03161461092b5760405162461bcd60e51b815260040161035690611533565b6001600160a01b0382166109515760405162461bcd60e51b8152600401610356906112fb565b61095c83838361040e565b6109676000826107ff565b6001600160a01b03831660009081526003602052604081208054600192906109909084906116db565b90915550506001600160a01b03821660009081526003602052604081208054600192906109be908490611690565b909155505060008181526002602052604080822080546001600160a01b0319166001600160a01b0386811691821790925591518493918716917fddf252ad1be2c89b69c2b068fc378daa952ba7f163c4a11628f55a4df523b3ef91a4505050565b610a298383610c67565b610a366000848484610d46565b61040e5760405162461bcd60e51b815260040161035690611272565b612710811115610a745760405162461bcd60e51b81526004016103569061123b565b604080518082019091526001600160a01b0390921680835262ffffff909116602090920182905260068054600160a01b90930262ffffff60a01b196001600160a01b031990941690921792909216179055565b610ad28484846108f2565b610ade84848484610d46565b6107025760405162461bcd60e51b815260040161035690611272565b60408051602081019091526000815290565b606081610b3157506040805180820190915260018152600360fc1b6020820152610298565b8160005b8115610b5b5780610b4581611759565b9150610b549050600a836116a8565b9150610b35565b60008167ffffffffffffffff811115610b8457634e487b7160e01b600052604160045260246000fd5b6040519080825280601f01601f191660200182016040528015610bae576020820181803683370190505b5090505b84156108ea57610bc36001836116db565b9150610bd0600a86611774565b610bdb906030611690565b60f81b818381518110610bfe57634e487b7160e01b600052603260045260246000fd5b60200101906001600160f81b031916908160001a905350610c20600a866116a8565b9450610bb2565b60006001600160e01b031982166380ac58cd60e01b1480610c5857506001600160e01b03198216635b5e139f60e01b145b80610295575061029582610e61565b6001600160a01b038216610c8d5760405162461bcd60e51b8152600401610356906114b2565b610c96816107de565b15610cb35760405162461bcd60e51b8152600401610356906112c4565b610cbf6000838361040e565b6001600160a01b0382166000908152600360205260408120805460019290610ce8908490611690565b909155505060008181526002602052604080822080546001600160a01b0319166001600160a01b03861690811790915590518392907fddf252ad1be2c89b69c2b068fc378daa952ba7f163c4a11628f55a4df523b3ef908290a45050565b6000610d5a846001600160a01b0316610e7a565b15610e5657836001600160a01b031663150b7a02610d766107fb565b8786866040518563ffffffff1660e01b8152600401610d9894939291906111c7565b602060405180830381600087803b158015610db257600080fd5b505af1925050508015610de2575060408051601f3d908101601f19168201909252610ddf91810190611103565b60015b610e3c573d808015610e10576040519150601f19603f3d011682016040523d82523d6000602084013e610e15565b606091505b508051610e345760405162461bcd60e51b815260040161035690611272565b805181602001fd5b6001600160e01b031916630a85bd0160e11b1490506108ea565b506001949350505050565b6001600160e01b031981166301ffc9a760e01b14919050565b3b151590565b80356001600160a01b038116811461029857600080fd5b600060208284031215610ea8578081fd5b61078482610e80565b60008060408385031215610ec3578081fd5b610ecc83610e80565b9150610eda60208401610e80565b90509250929050565b600080600060608486031215610ef7578081fd5b610f0084610e80565b9250610f0e60208501610e80565b9150604084013590509250925092565b60008060008060808587031215610f33578081fd5b610f3c85610e80565b93506020610f4b818701610e80565b935060408601359250606086013567ffffffffffffffff80821115610f6e578384fd5b818801915088601f830112610f81578384fd5b813581811115610f9357610f936117b4565b610fa5601f8201601f19168501611666565b91508082528984828501011115610fba578485fd5b8084840185840137810190920192909252939692955090935050565b60008060408385031215610fe8578182fd5b610ff183610e80565b915060208301358015158114611005578182fd5b809150509250929050565b60008060408385031215611022578182fd5b61102b83610e80565b946020939093013593505050565b6000602080838503121561104b578182fd5b823567ffffffffffffffff80821115611062578384fd5b818501915085601f830112611075578384fd5b813581811115611087576110876117b4565b8381029150611097848301611666565b8181528481019084860184860187018a10156110b1578788fd5b8795505b838610156110da576110c681610e80565b8352600195909501949186019186016110b5565b5098975050505050505050565b6000602082840312156110f8578081fd5b8135610784816117ca565b600060208284031215611114578081fd5b8151610784816117ca565b600060208284031215611130578081fd5b5035919050565b60008060408385031215611149578182fd5b50508035926020909101359150565b600081518084526111708160208601602086016116f2565b601f01601f19169290920160200192915050565b600083516111968184602088016116f2565b8351908301906111aa8183602088016116f2565b01949350505050565b6001600160a01b0391909116815260200190565b6001600160a01b03858116825284166020820152604081018390526080606082018190526000906111fa90830184611158565b9695505050505050565b6001600160a01b03929092168252602082015260400190565b901515815260200190565b6000602082526107846020830184611158565b6020808252601a908201527f45524332393831526f79616c746965733a20546f6f2068696768000000000000604082015260600190565b60208082526032908201527f4552433732313a207472616e7366657220746f206e6f6e20455243373231526560408201527131b2b4bb32b91034b6b83632b6b2b73a32b960711b606082015260800190565b6020808252601c908201527f4552433732313a20746f6b656e20616c7265616479206d696e74656400000000604082015260600190565b60208082526024908201527f4552433732313a207472616e7366657220746f20746865207a65726f206164646040820152637265737360e01b606082015260800190565b60208082526019908201527f4552433732313a20617070726f766520746f2063616c6c657200000000000000604082015260600190565b6020808252602c908201527f4552433732313a206f70657261746f7220717565727920666f72206e6f6e657860408201526b34b9ba32b73a103a37b5b2b760a11b606082015260800190565b60208082526038908201527f4552433732313a20617070726f76652063616c6c6572206973206e6f74206f7760408201527f6e6572206e6f7220617070726f76656420666f7220616c6c0000000000000000606082015260800190565b6020808252602a908201527f4552433732313a2062616c616e636520717565727920666f7220746865207a65604082015269726f206164647265737360b01b606082015260800190565b60208082526029908201527f4552433732313a206f776e657220717565727920666f72206e6f6e657869737460408201526832b73a103a37b5b2b760b91b606082015260800190565b6020808252818101527f4552433732313a206d696e7420746f20746865207a65726f2061646472657373604082015260600190565b6020808252602c908201527f4552433732313a20617070726f76656420717565727920666f72206e6f6e657860408201526b34b9ba32b73a103a37b5b2b760a11b606082015260800190565b60208082526029908201527f4552433732313a207472616e73666572206f6620746f6b656e2074686174206960408201526839903737ba1037bbb760b91b606082015260800190565b6020808252602f908201527f4552433732314d657461646174613a2055524920717565727920666f72206e6f60408201526e3732bc34b9ba32b73a103a37b5b2b760891b606082015260800190565b60208082526021908201527f4552433732313a20617070726f76616c20746f2063757272656e74206f776e656040820152603960f91b606082015260800190565b60208082526031908201527f4552433732313a207472616e736665722063616c6c6572206973206e6f74206f6040820152701ddb995c881b9bdc88185c1c1c9bdd9959607a1b606082015260800190565b90815260200190565b60405181810167ffffffffffffffff81118282101715611688576116886117b4565b604052919050565b600082198211156116a3576116a3611788565b500190565b6000826116b7576116b761179e565b500490565b60008160001904831182151516156116d6576116d6611788565b500290565b6000828210156116ed576116ed611788565b500390565b60005b8381101561170d5781810151838201526020016116f5565b838111156107025750506000910152565b60028104600182168061173257607f821691505b6020821081141561175357634e487b7160e01b600052602260045260246000fd5b50919050565b600060001982141561176d5761176d611788565b5060010190565b6000826117835761178361179e565b500690565b634e487b7160e01b600052601160045260246000fd5b634e487b7160e01b600052601260045260246000fd5b634e487b7160e01b600052604160045260246000fd5b6001600160e01b0319811681146117e057600080fd5b5056fea264697066735822122099748f6f8a9ed84cd62a603e6bd6e78a7767b31a7bc994922601a42ea99d0b1564736f6c63430008000033",
  "linkReferences": {},
  "deployedLinkReferences": {}
}