{
  "_format": "hh-sol-artifact-1",
  "contractName": "ERC721WithRoyalties",
  "sourceName": "contracts/mocks/ERC721WithRoyalties.sol",
  "abi": [
    {
      "inputs": [
        {
          "internalType": "string",
          "name": "name_",
          "type": "string"
        },
        {
          "internalType": "string",
          "name": "symbol_",
          "type": "string"
        }
      ],
      "stateMutability": "nonpayable",
      "type": "constructor"
    },
    {
      "anonymous": false,
      "inputs": [
        {
          "indexed": true,
          "internalType": "address",
          "name": "owner",
          "type": "address"
        },
        {
          "indexed": true,
          "internalType": "address",
          "name": "approved",
          "type": "address"
        },
        {
          "indexed": true,
          "internalType": "uint256",
          "name": "tokenId",
          "type": "uint256"
        }
      ],
      "name": "Approval",
      "type": "event"
    },
    {
      "anonymous": false,
      "inputs": [
        {
          "indexed": true,
          "internalType": "address",
          "name": "owner",
          "type": "address"
        },
        {
          "indexed": true,
          "internalType": "address",
          "name": "operator",
          "type": "address"
        },
        {
          "indexed": false,
          "internalType": "bool",
          "name": "approved",
          "type": "bool"
        }
      ],
      "name": "ApprovalForAll",
      "type": "event"
    },
    {
      "anonymous": false,
      "inputs": [
        {
          "indexed": true,
          "internalType": "address",
          "name": "from",
          "type": "address"
        },
        {
          "indexed": true,
          "internalType": "address",
          "name": "to",
          "type": "address"
        },
        {
          "indexed": true,
          "internalType": "uint256",
          "name": "tokenId",
          "type": "uint256"
        }
      ],
      "name": "Transfer",
      "type": "event"
    },
    {
      "inputs": [
        {
          "internalType": "address",
          "name": "to",
          "type": "address"
        },
        {
          "internalType": "uint256",
          "name": "tokenId",
          "type": "uint256"
        }
      ],
      "name": "approve",
      "outputs": [],
      "stateMutability": "nonpayable",
      "type": "function"
    },
    {
      "inputs": [
        {
          "internalType": "address",
          "name": "owner",
          "type": "address"
        }
      ],
      "name": "balanceOf",
      "outputs": [
        {
          "internalType": "uint256",
          "name": "",
          "type": "uint256"
        }
      ],
      "stateMutability": "view",
      "type": "function"
    },
    {
      "inputs": [
        {
          "internalType": "uint256",
          "name": "tokenId",
          "type": "uint256"
        }
      ],
      "name": "getApproved",
      "outputs": [
        {
          "internalType": "address",
          "name": "",
          "type": "address"
        }
      ],
      "stateMutability": "view",
      "type": "function"
    },
    {
      "inputs": [
        {
          "internalType": "address",
          "name": "owner",
          "type": "address"
        },
        {
          "internalType": "address",
          "name": "operator",
          "type": "address"
        }
      ],
      "name": "isApprovedForAll",
      "outputs": [
        {
          "internalType": "bool",
          "name": "",
          "type": "bool"
        }
      ],
      "stateMutability": "view",
      "type": "function"
    },
    {
      "inputs": [
        {
          "internalType": "address",
          "name": "to",
          "type": "address"
        },
        {
          "internalType": "address",
          "name": "royaltyRecipient",
          "type": "address"
        },
        {
          "internalType": "uint256",
          "name": "royaltyValue",
          "type": "uint256"
        }
      ],
      "name": "mint",
      "outputs": [],
      "stateMutability": "nonpayable",
      "type": "function"
    },
    {
      "inputs": [
        {
          "internalType": "address[]",
          "name": "recipients",
          "type": "address[]"
        },
        {
          "internalType": "address[]",
          "name": "royaltyRecipients",
          "type": "address[]"
        },
        {
          "internalType": "uint256[]",
          "name": "royaltyValues",
          "type": "uint256[]"
        }
      ],
      "name": "mintBatch",
      "outputs": [],
      "stateMutability": "nonpayable",
      "type": "function"
    },
    {
      "inputs": [],
      "name": "name",
      "outputs": [
        {
          "internalType": "string",
          "name": "",
          "type": "string"
        }
      ],
      "stateMutability": "view",
      "type": "function"
    },
    {
      "inputs": [
        {
          "internalType": "uint256",
          "name": "tokenId",
          "type": "uint256"
        }
      ],
      "name": "ownerOf",
      "outputs": [
        {
          "internalType": "address",
          "name": "",
          "type": "address"
        }
      ],
      "stateMutability": "view",
      "type": "function"
    },
    {
      "inputs": [
        {
          "internalType": "uint256",
          "name": "tokenId",
          "type": "uint256"
        },
        {
          "internalType": "uint256",
          "name": "value",
          "type": "uint256"
        }
      ],
      "name": "royaltyInfo",
      "outputs": [
        {
          "internalType": "address",
          "name": "receiver",
          "type": "address"
        },
        {
          "internalType": "uint256",
          "name": "royaltyAmount",
          "type": "uint256"
        }
      ],
      "stateMutability": "view",
      "type": "function"
    },
    {
      "inputs": [
        {
          "internalType": "address",
          "name": "from",
          "type": "address"
        },
        {
          "internalType": "address",
          "name": "to",
          "type": "address"
        },
        {
          "internalType": "uint256",
          "name": "tokenId",
          "type": "uint256"
        }
      ],
      "name": "safeTransferFrom",
      "outputs": [],
      "stateMutability": "nonpayable",
      "type": "function"
    },
    {
      "inputs": [
        {
          "internalType": "address",
          "name": "from",
          "type": "address"
        },
        {
          "internalType": "address",
          "name": "to",
          "type": "address"
        },
        {
          "internalType": "uint256",
          "name": "tokenId",
          "type": "uint256"
        },
        {
          "internalType": "bytes",
          "name": "_data",
          "type": "bytes"
        }
      ],
      "name": "safeTransferFrom",
      "outputs": [],
      "stateMutability": "nonpayable",
      "type": "function"
    },
    {
      "inputs": [
        {
          "internalType": "address",
          "name": "operator",
          "type": "address"
        },
        {
          "internalType": "bool",
          "name": "approved",
          "type": "bool"
        }
      ],
      "name": "setApprovalForAll",
      "outputs": [],
      "stateMutability": "nonpayable",
      "type": "function"
    },
    {
      "inputs": [
        {
          "internalType": "bytes4",
          "name": "interfaceId",
          "type": "bytes4"
        }
      ],
      "name": "supportsInterface",
      "outputs": [
        {
          "internalType": "bool",
          "name": "",
          "type": "bool"
        }
      ],
      "stateMutability": "view",
      "type": "function"
    },
    {
      "inputs": [],
      "name": "symbol",
      "outputs": [
        {
          "internalType": "string",
          "name": "",
          "type": "string"
        }
      ],
      "stateMutability": "view",
      "type": "function"
    },
    {
      "inputs": [
        {
          "internalType": "uint256",
          "name": "tokenId",
          "type": "uint256"
        }
      ],
      "name": "tokenURI",
      "outputs": [
        {
          "internalType": "string",
          "name": "",
          "type": "string"
        }
      ],
      "stateMutability": "view",
      "type": "function"
    },
    {
      "inputs": [
        {
          "internalType": "address",
          "name": "from",
          "type": "address"
        },
        {
          "internalType": "address",
          "name": "to",
          "type": "address"
        },
        {
          "internalType": "uint256",
          "name": "tokenId",
          "type": "uint256"
        }
      ],
      "name": "transferFrom",
      "outputs": [],
      "stateMutability": "nonpayable",
      "type": "function"
    }
  ],
  "bytecode": "0x60806040523480156200001157600080fd5b5060405162001c5338038062001c538339810160408190526200003491620001bf565b8151829082906200004d9060009060208501906200006e565b508051620000639060019060208401906200006e565b505050505062000279565b8280546200007c9062000226565b90600052602060002090601f016020900481019282620000a05760008555620000eb565b82601f10620000bb57805160ff1916838001178555620000eb565b82800160010185558215620000eb579182015b82811115620000eb578251825591602001919060010190620000ce565b50620000f9929150620000fd565b5090565b5b80821115620000f95760008155600101620000fe565b600082601f83011262000125578081fd5b81516001600160401b038082111562000142576200014262000263565b6040516020601f8401601f19168201810183811183821017156200016a576200016a62000263565b604052838252858401810187101562000181578485fd5b8492505b83831015620001a4578583018101518284018201529182019162000185565b83831115620001b557848185840101525b5095945050505050565b60008060408385031215620001d2578182fd5b82516001600160401b0380821115620001e9578384fd5b620001f78683870162000114565b935060208501519150808211156200020d578283fd5b506200021c8582860162000114565b9150509250929050565b6002810460018216806200023b57607f821691505b602082108114156200025d57634e487b7160e01b600052602260045260246000fd5b50919050565b634e487b7160e01b600052604160045260246000fd5b6119ca80620002896000396000f3fe608060405234801561001057600080fd5b50600436106101005760003560e01c806370a0823111610097578063c6c3bbe611610066578063c6c3bbe614610220578063c87b56dd14610233578063ccee286d14610246578063e985e9c51461025957610100565b806370a08231146101d257806395d89b41146101f2578063a22cb465146101fa578063b88d4fde1461020d57610100565b806323b872dd116100d357806323b872dd146101785780632a55205a1461018b57806342842e0e146101ac5780636352211e146101bf57610100565b806301ffc9a71461010557806306fdde031461012e578063081812fc14610143578063095ea7b314610163575b600080fd5b61011861011336600461123d565b61026c565b6040516101259190611373565b60405180910390f35b61013661027f565b604051610125919061137e565b610156610151366004611275565b610311565b6040516101259190611309565b610176610171366004611139565b61035d565b005b61017661018636600461100c565b6103f5565b61019e61019936600461128d565b61042d565b60405161012592919061135a565b6101766101ba36600461100c565b61048b565b6101566101cd366004611275565b6104a6565b6101e56101e0366004610fc0565b6104db565b60405161012591906117ea565b61013661051f565b6101766102083660046110ff565b61052e565b61017661021b366004611047565b6105fc565b61017661022e36600461100c565b61063b565b610136610241366004611275565b610681565b610176610254366004611162565b610704565b610118610267366004610fda565b610834565b600061027782610862565b90505b919050565b60606000805461028e906118cf565b80601f01602080910402602001604051908101604052809291908181526020018280546102ba906118cf565b80156103075780601f106102dc57610100808354040283529160200191610307565b820191906000526020600020905b8154815290600101906020018083116102ea57829003601f168201915b5050505050905090565b600061031c82610887565b6103415760405162461bcd60e51b815260040161033890611674565b60405180910390fd5b506000908152600460205260409020546001600160a01b031690565b6000610368826104a6565b9050806001600160a01b0316836001600160a01b0316141561039c5760405162461bcd60e51b815260040161033890611758565b806001600160a01b03166103ae6108a4565b6001600160a01b031614806103ca57506103ca816102676108a4565b6103e65760405162461bcd60e51b815260040161033890611518565b6103f083836108a8565b505050565b6104066104006108a4565b82610916565b6104225760405162461bcd60e51b815260040161033890611799565b6103f083838361099b565b60008281526006602090815260408083208151808301909252546001600160a01b038116808352600160a01b90910462ffffff16928201839052929161271090610477908661186d565b6104819190611859565b9150509250929050565b6103f0838383604051806020016040528060008152506105fc565b6000818152600260205260408120546001600160a01b0316806102775760405162461bcd60e51b8152600401610338906115bf565b60006001600160a01b0382166105035760405162461bcd60e51b815260040161033890611575565b506001600160a01b031660009081526003602052604090205490565b60606001805461028e906118cf565b6105366108a4565b6001600160a01b0316826001600160a01b031614156105675760405162461bcd60e51b815260040161033890611495565b80600560006105746108a4565b6001600160a01b03908116825260208083019390935260409182016000908120918716808252919093529120805460ff1916921515929092179091556105b86108a4565b6001600160a01b03167f17307eab39ab6107e8899845ad3d59bd9653f200f220920489ca2b5937696c31836040516105f09190611373565b60405180910390a35050565b61060d6106076108a4565b83610916565b6106295760405162461bcd60e51b815260040161033890611799565b61063584848484610ac8565b50505050565b6000600754905061065c848260405180602001604052806000815250610afb565b811561066d5761066d818484610b2e565b610678816001611841565b60075550505050565b606061068c82610887565b6106a85760405162461bcd60e51b815260040161033890611709565b60006106b2610bb0565b905060008151116106d257604051806020016040528060008152506106fd565b806106dc84610bc2565b6040516020016106ed9291906112da565b6040516020818303038152906040525b9392505050565b60075482518451148015610719575081518451145b6107355760405162461bcd60e51b81526004016103389061163d565b60005b845181101561082b5761078285828151811061076457634e487b7160e01b600052603260045260246000fd5b60200260200101518360405180602001604052806000815250610afb565b60008382815181106107a457634e487b7160e01b600052603260045260246000fd5b6020026020010151111561080b5761080b828583815181106107d657634e487b7160e01b600052603260045260246000fd5b60200260200101518584815181106107fe57634e487b7160e01b600052603260045260246000fd5b6020026020010151610b2e565b816108158161190a565b92505080806108239061190a565b915050610738565b50600755505050565b6001600160a01b03918216600090815260056020908152604080832093909416825291909152205460ff1690565b60006001600160e01b0319821663152a902d60e11b1480610277575061027782610cdd565b6000908152600260205260409020546001600160a01b0316151590565b3390565b600081815260046020526040902080546001600160a01b0319166001600160a01b03841690811790915581906108dd826104a6565b6001600160a01b03167f8c5be1e5ebec7d5bd14f71427d1e84f3dd0314c0f7b2291e5b200ac8c7c3b92560405160405180910390a45050565b600061092182610887565b61093d5760405162461bcd60e51b8152600401610338906114cc565b6000610948836104a6565b9050806001600160a01b0316846001600160a01b031614806109835750836001600160a01b031661097884610311565b6001600160a01b0316145b8061099357506109938185610834565b949350505050565b826001600160a01b03166109ae826104a6565b6001600160a01b0316146109d45760405162461bcd60e51b8152600401610338906116c0565b6001600160a01b0382166109fa5760405162461bcd60e51b815260040161033890611451565b610a058383836103f0565b610a106000826108a8565b6001600160a01b0383166000908152600360205260408120805460019290610a3990849061188c565b90915550506001600160a01b0382166000908152600360205260408120805460019290610a67908490611841565b909155505060008181526002602052604080822080546001600160a01b0319166001600160a01b0386811691821790925591518493918716917fddf252ad1be2c89b69c2b068fc378daa952ba7f163c4a11628f55a4df523b3ef91a4505050565b610ad384848461099b565b610adf84848484610d1d565b6106355760405162461bcd60e51b8152600401610338906113c8565b610b058383610e38565b610b126000848484610d1d565b6103f05760405162461bcd60e51b8152600401610338906113c8565b612710811115610b505760405162461bcd60e51b815260040161033890611391565b6040805180820182526001600160a01b03938416815262ffffff928316602080830191825260009687526006905291909420935184549151909216600160a01b0262ffffff60a01b19929093166001600160a01b03199091161716179055565b60408051602081019091526000815290565b606081610be757506040805180820190915260018152600360fc1b602082015261027a565b8160005b8115610c115780610bfb8161190a565b9150610c0a9050600a83611859565b9150610beb565b60008167ffffffffffffffff811115610c3a57634e487b7160e01b600052604160045260246000fd5b6040519080825280601f01601f191660200182016040528015610c64576020820181803683370190505b5090505b841561099357610c7960018361188c565b9150610c86600a86611925565b610c91906030611841565b60f81b818381518110610cb457634e487b7160e01b600052603260045260246000fd5b60200101906001600160f81b031916908160001a905350610cd6600a86611859565b9450610c68565b60006001600160e01b031982166380ac58cd60e01b1480610d0e57506001600160e01b03198216635b5e139f60e01b145b80610277575061027782610f17565b6000610d31846001600160a01b0316610f30565b15610e2d57836001600160a01b031663150b7a02610d4d6108a4565b8786866040518563ffffffff1660e01b8152600401610d6f949392919061131d565b602060405180830381600087803b158015610d8957600080fd5b505af1925050508015610db9575060408051601f3d908101601f19168201909252610db691810190611259565b60015b610e13573d808015610de7576040519150601f19603f3d011682016040523d82523d6000602084013e610dec565b606091505b508051610e0b5760405162461bcd60e51b8152600401610338906113c8565b805181602001fd5b6001600160e01b031916630a85bd0160e11b149050610993565b506001949350505050565b6001600160a01b038216610e5e5760405162461bcd60e51b815260040161033890611608565b610e6781610887565b15610e845760405162461bcd60e51b81526004016103389061141a565b610e90600083836103f0565b6001600160a01b0382166000908152600360205260408120805460019290610eb9908490611841565b909155505060008181526002602052604080822080546001600160a01b0319166001600160a01b03861690811790915590518392907fddf252ad1be2c89b69c2b068fc378daa952ba7f163c4a11628f55a4df523b3ef908290a45050565b6001600160e01b031981166301ffc9a760e01b14919050565b3b151590565b80356001600160a01b038116811461027a57600080fd5b600082601f830112610f5d578081fd5b81356020610f72610f6d8361181d565b6117f3565b8281528181019085830183850287018401881015610f8e578586fd5b855b85811015610fb357610fa182610f36565b84529284019290840190600101610f90565b5090979650505050505050565b600060208284031215610fd1578081fd5b6106fd82610f36565b60008060408385031215610fec578081fd5b610ff583610f36565b915061100360208401610f36565b90509250929050565b600080600060608486031215611020578081fd5b61102984610f36565b925061103760208501610f36565b9150604084013590509250925092565b6000806000806080858703121561105c578081fd5b61106585610f36565b93506020611074818701610f36565b935060408601359250606086013567ffffffffffffffff80821115611097578384fd5b818801915088601f8301126110aa578384fd5b8135818111156110bc576110bc611965565b6110ce601f8201601f191685016117f3565b915080825289848285010111156110e3578485fd5b8084840185840137810190920192909252939692955090935050565b60008060408385031215611111578182fd5b61111a83610f36565b91506020830135801515811461112e578182fd5b809150509250929050565b6000806040838503121561114b578182fd5b61115483610f36565b946020939093013593505050565b600080600060608486031215611176578283fd5b833567ffffffffffffffff8082111561118d578485fd5b61119987838801610f4d565b94506020915081860135818111156111af578485fd5b6111bb88828901610f4d565b9450506040860135818111156111cf578384fd5b86019050601f810187136111e1578283fd5b80356111ef610f6d8261181d565b81815283810190838501858402850186018b101561120b578687fd5b8694505b8385101561122d57803583526001949094019391850191850161120f565b5080955050505050509250925092565b60006020828403121561124e578081fd5b81356106fd8161197b565b60006020828403121561126a578081fd5b81516106fd8161197b565b600060208284031215611286578081fd5b5035919050565b6000806040838503121561129f578182fd5b50508035926020909101359150565b600081518084526112c68160208601602086016118a3565b601f01601f19169290920160200192915050565b600083516112ec8184602088016118a3565b8351908301906113008183602088016118a3565b01949350505050565b6001600160a01b0391909116815260200190565b6001600160a01b0385811682528416602082015260408101839052608060608201819052600090611350908301846112ae565b9695505050505050565b6001600160a01b03929092168252602082015260400190565b901515815260200190565b6000602082526106fd60208301846112ae565b6020808252601a908201527f45524332393831526f79616c746965733a20546f6f2068696768000000000000604082015260600190565b60208082526032908201527f4552433732313a207472616e7366657220746f206e6f6e20455243373231526560408201527131b2b4bb32b91034b6b83632b6b2b73a32b960711b606082015260800190565b6020808252601c908201527f4552433732313a20746f6b656e20616c7265616479206d696e74656400000000604082015260600190565b60208082526024908201527f4552433732313a207472616e7366657220746f20746865207a65726f206164646040820152637265737360e01b606082015260800190565b60208082526019908201527f4552433732313a20617070726f766520746f2063616c6c657200000000000000604082015260600190565b6020808252602c908201527f4552433732313a206f70657261746f7220717565727920666f72206e6f6e657860408201526b34b9ba32b73a103a37b5b2b760a11b606082015260800190565b60208082526038908201527f4552433732313a20617070726f76652063616c6c6572206973206e6f74206f7760408201527f6e6572206e6f7220617070726f76656420666f7220616c6c0000000000000000606082015260800190565b6020808252602a908201527f4552433732313a2062616c616e636520717565727920666f7220746865207a65604082015269726f206164647265737360b01b606082015260800190565b60208082526029908201527f4552433732313a206f776e657220717565727920666f72206e6f6e657869737460408201526832b73a103a37b5b2b760b91b606082015260800190565b6020808252818101527f4552433732313a206d696e7420746f20746865207a65726f2061646472657373604082015260600190565b6020808252601e908201527f4552433732313a20417272617973206c656e677468206d69736d617463680000604082015260600190565b6020808252602c908201527f4552433732313a20617070726f76656420717565727920666f72206e6f6e657860408201526b34b9ba32b73a103a37b5b2b760a11b606082015260800190565b60208082526029908201527f4552433732313a207472616e73666572206f6620746f6b656e2074686174206960408201526839903737ba1037bbb760b91b606082015260800190565b6020808252602f908201527f4552433732314d657461646174613a2055524920717565727920666f72206e6f60408201526e3732bc34b9ba32b73a103a37b5b2b760891b606082015260800190565b60208082526021908201527f4552433732313a20617070726f76616c20746f2063757272656e74206f776e656040820152603960f91b606082015260800190565b60208082526031908201527f4552433732313a207472616e736665722063616c6c6572206973206e6f74206f6040820152701ddb995c881b9bdc88185c1c1c9bdd9959607a1b606082015260800190565b90815260200190565b60405181810167ffffffffffffffff8111828210171561181557611815611965565b604052919050565b600067ffffffffffffffff82111561183757611837611965565b5060209081020190565b6000821982111561185457611854611939565b500190565b6000826118685761186861194f565b500490565b600081600019048311821515161561188757611887611939565b500290565b60008282101561189e5761189e611939565b500390565b60005b838110156118be5781810151838201526020016118a6565b838111156106355750506000910152565b6002810460018216806118e357607f821691505b6020821081141561190457634e487b7160e01b600052602260045260246000fd5b50919050565b600060001982141561191e5761191e611939565b5060010190565b6000826119345761193461194f565b500690565b634e487b7160e01b600052601160045260246000fd5b634e487b7160e01b600052601260045260246000fd5b634e487b7160e01b600052604160045260246000fd5b6001600160e01b03198116811461199157600080fd5b5056fea26469706673582212202e778cc17d5faf2c6f3a274bb3053c32dee648aebe8504f70fd5f946d66a021b64736f6c63430008000033",
  "linkReferences": {},
  "deployedLinkReferences": {}
}