{
  "_format": "hh-sol-artifact-1",
  "contractName": "ERC1155WithRoyalties",
  "sourceName": "contracts/mocks/ERC1155WithRoyalties.sol",
  "abi": [
    {
      "inputs": [
        {
          "internalType": "string",
          "name": "uri_",
          "type": "string"
        }
      ],
      "stateMutability": "nonpayable",
      "type": "constructor"
    },
    {
      "anonymous": false,
      "inputs": [
        {
          "indexed": true,
          "internalType": "address",
          "name": "account",
          "type": "address"
        },
        {
          "indexed": true,
          "internalType": "address",
          "name": "operator",
          "type": "address"
        },
        {
          "indexed": false,
          "internalType": "bool",
          "name": "approved",
          "type": "bool"
        }
      ],
      "name": "ApprovalForAll",
      "type": "event"
    },
    {
      "anonymous": false,
      "inputs": [
        {
          "indexed": true,
          "internalType": "address",
          "name": "operator",
          "type": "address"
        },
        {
          "indexed": true,
          "internalType": "address",
          "name": "from",
          "type": "address"
        },
        {
          "indexed": true,
          "internalType": "address",
          "name": "to",
          "type": "address"
        },
        {
          "indexed": false,
          "internalType": "uint256[]",
          "name": "ids",
          "type": "uint256[]"
        },
        {
          "indexed": false,
          "internalType": "uint256[]",
          "name": "values",
          "type": "uint256[]"
        }
      ],
      "name": "TransferBatch",
      "type": "event"
    },
    {
      "anonymous": false,
      "inputs": [
        {
          "indexed": true,
          "internalType": "address",
          "name": "operator",
          "type": "address"
        },
        {
          "indexed": true,
          "internalType": "address",
          "name": "from",
          "type": "address"
        },
        {
          "indexed": true,
          "internalType": "address",
          "name": "to",
          "type": "address"
        },
        {
          "indexed": false,
          "internalType": "uint256",
          "name": "id",
          "type": "uint256"
        },
        {
          "indexed": false,
          "internalType": "uint256",
          "name": "value",
          "type": "uint256"
        }
      ],
      "name": "TransferSingle",
      "type": "event"
    },
    {
      "anonymous": false,
      "inputs": [
        {
          "indexed": false,
          "internalType": "string",
          "name": "value",
          "type": "string"
        },
        {
          "indexed": true,
          "internalType": "uint256",
          "name": "id",
          "type": "uint256"
        }
      ],
      "name": "URI",
      "type": "event"
    },
    {
      "inputs": [
        {
          "internalType": "address",
          "name": "account",
          "type": "address"
        },
        {
          "internalType": "uint256",
          "name": "id",
          "type": "uint256"
        }
      ],
      "name": "balanceOf",
      "outputs": [
        {
          "internalType": "uint256",
          "name": "",
          "type": "uint256"
        }
      ],
      "stateMutability": "view",
      "type": "function"
    },
    {
      "inputs": [
        {
          "internalType": "address[]",
          "name": "accounts",
          "type": "address[]"
        },
        {
          "internalType": "uint256[]",
          "name": "ids",
          "type": "uint256[]"
        }
      ],
      "name": "balanceOfBatch",
      "outputs": [
        {
          "internalType": "uint256[]",
          "name": "",
          "type": "uint256[]"
        }
      ],
      "stateMutability": "view",
      "type": "function"
    },
    {
      "inputs": [
        {
          "internalType": "address",
          "name": "account",
          "type": "address"
        },
        {
          "internalType": "address",
          "name": "operator",
          "type": "address"
        }
      ],
      "name": "isApprovedForAll",
      "outputs": [
        {
          "internalType": "bool",
          "name": "",
          "type": "bool"
        }
      ],
      "stateMutability": "view",
      "type": "function"
    },
    {
      "inputs": [
        {
          "internalType": "address",
          "name": "to",
          "type": "address"
        },
        {
          "internalType": "uint256",
          "name": "id",
          "type": "uint256"
        },
        {
          "internalType": "uint256",
          "name": "amount",
          "type": "uint256"
        },
        {
          "internalType": "address",
          "name": "royaltyRecipient",
          "type": "address"
        },
        {
          "internalType": "uint256",
          "name": "royaltyValue",
          "type": "uint256"
        }
      ],
      "name": "mint",
      "outputs": [],
      "stateMutability": "nonpayable",
      "type": "function"
    },
    {
      "inputs": [
        {
          "internalType": "address",
          "name": "to",
          "type": "address"
        },
        {
          "internalType": "uint256[]",
          "name": "ids",
          "type": "uint256[]"
        },
        {
          "internalType": "uint256[]",
          "name": "amounts",
          "type": "uint256[]"
        },
        {
          "internalType": "address[]",
          "name": "royaltyRecipients",
          "type": "address[]"
        },
        {
          "internalType": "uint256[]",
          "name": "royaltyValues",
          "type": "uint256[]"
        }
      ],
      "name": "mintBatch",
      "outputs": [],
      "stateMutability": "nonpayable",
      "type": "function"
    },
    {
      "inputs": [
        {
          "internalType": "uint256",
          "name": "tokenId",
          "type": "uint256"
        },
        {
          "internalType": "uint256",
          "name": "value",
          "type": "uint256"
        }
      ],
      "name": "royaltyInfo",
      "outputs": [
        {
          "internalType": "address",
          "name": "receiver",
          "type": "address"
        },
        {
          "internalType": "uint256",
          "name": "royaltyAmount",
          "type": "uint256"
        }
      ],
      "stateMutability": "view",
      "type": "function"
    },
    {
      "inputs": [
        {
          "internalType": "address",
          "name": "from",
          "type": "address"
        },
        {
          "internalType": "address",
          "name": "to",
          "type": "address"
        },
        {
          "internalType": "uint256[]",
          "name": "ids",
          "type": "uint256[]"
        },
        {
          "internalType": "uint256[]",
          "name": "amounts",
          "type": "uint256[]"
        },
        {
          "internalType": "bytes",
          "name": "data",
          "type": "bytes"
        }
      ],
      "name": "safeBatchTransferFrom",
      "outputs": [],
      "stateMutability": "nonpayable",
      "type": "function"
    },
    {
      "inputs": [
        {
          "internalType": "address",
          "name": "from",
          "type": "address"
        },
        {
          "internalType": "address",
          "name": "to",
          "type": "address"
        },
        {
          "internalType": "uint256",
          "name": "id",
          "type": "uint256"
        },
        {
          "internalType": "uint256",
          "name": "amount",
          "type": "uint256"
        },
        {
          "internalType": "bytes",
          "name": "data",
          "type": "bytes"
        }
      ],
      "name": "safeTransferFrom",
      "outputs": [],
      "stateMutability": "nonpayable",
      "type": "function"
    },
    {
      "inputs": [
        {
          "internalType": "address",
          "name": "operator",
          "type": "address"
        },
        {
          "internalType": "bool",
          "name": "approved",
          "type": "bool"
        }
      ],
      "name": "setApprovalForAll",
      "outputs": [],
      "stateMutability": "nonpayable",
      "type": "function"
    },
    {
      "inputs": [
        {
          "internalType": "bytes4",
          "name": "interfaceId",
          "type": "bytes4"
        }
      ],
      "name": "supportsInterface",
      "outputs": [
        {
          "internalType": "bool",
          "name": "",
          "type": "bool"
        }
      ],
      "stateMutability": "view",
      "type": "function"
    },
    {
      "inputs": [
        {
          "internalType": "uint256",
          "name": "",
          "type": "uint256"
        }
      ],
      "name": "uri",
      "outputs": [
        {
          "internalType": "string",
          "name": "",
          "type": "string"
        }
      ],
      "stateMutability": "view",
      "type": "function"
    }
  ],
  "bytecode": "0x60806040523480156200001157600080fd5b5060405162001ea438038062001ea4833981016040819052620000349162000107565b80620000408162000048565b505062000229565b80516200005d90600290602084019062000061565b5050565b8280546200006f90620001d6565b90600052602060002090601f016020900481019282620000935760008555620000de565b82601f10620000ae57805160ff1916838001178555620000de565b82800160010185558215620000de579182015b82811115620000de578251825591602001919060010190620000c1565b50620000ec929150620000f0565b5090565b5b80821115620000ec5760008155600101620000f1565b600060208083850312156200011a578182fd5b82516001600160401b038082111562000131578384fd5b818501915085601f83011262000145578384fd5b8151818111156200015a576200015a62000213565b604051601f8201601f191681018501838111828210171562000180576200018062000213565b604052818152838201850188101562000197578586fd5b8592505b81831015620001ba57838301850151818401860152918401916200019b565b81831115620001cb57858583830101525b979650505050505050565b600281046001821680620001eb57607f821691505b602082108114156200020d57634e487b7160e01b600052602260045260246000fd5b50919050565b634e487b7160e01b600052604160045260246000fd5b611c6b80620002396000396000f3fe608060405234801561001057600080fd5b50600436106100a85760003560e01c806344b8f70c1161007157806344b8f70c1461014c5780634e1273f41461015f578063a22cb4651461017f578063a445058714610192578063e985e9c5146101a5578063f242432a146101b8576100a8565b8062fdd58e146100ad57806301ffc9a7146100d65780630e89341c146100f65780632a55205a146101165780632eb2c2d614610137575b600080fd5b6100c06100bb36600461139d565b6101cb565b6040516100cd9190611a1c565b60405180910390f35b6100e96100e436600461146a565b610222565b6040516100cd9190611664565b6101096101043660046114a9565b610235565b6040516100cd919061166f565b6101296101243660046114c1565b6102c9565b6040516100cd92919061160a565b61014a6101453660046111ae565b610327565b005b61014a61015a3660046112b7565b61058d565b61017261016d366004611413565b6106a4565b6040516100cd9190611623565b61014a61018d366004611363565b6107c4565b61014a6101a03660046113c6565b610892565b6100e96101b336600461117c565b6108c5565b61014a6101c6366004611254565b6108f3565b60006001600160a01b0383166101fc5760405162461bcd60e51b81526004016101f390611755565b60405180910390fd5b506000908152602081815260408083206001600160a01b03949094168352929052205490565b600061022d82610a89565b90505b919050565b60606002805461024490611aef565b80601f016020809104026020016040519081016040528092919081815260200182805461027090611aef565b80156102bd5780601f10610292576101008083540402835291602001916102bd565b820191906000526020600020905b8154815290600101906020018083116102a057829003601f168201915b50505050509050919050565b60008281526003602090815260408083208151808301909252546001600160a01b038116808352600160a01b90910462ffffff169282018390529291612710906103139086611ab9565b61031d9190611a99565b9150509250929050565b81518351146103485760405162461bcd60e51b81526004016101f390611993565b6001600160a01b03841661036e5760405162461bcd60e51b81526004016101f390611820565b610376610aae565b6001600160a01b0316856001600160a01b0316148061039c575061039c856101b3610aae565b6103b85760405162461bcd60e51b81526004016101f390611865565b60006103c2610aae565b90506103d2818787878787610585565b60005b845181101561051f57600085828151811061040057634e487b7160e01b600052603260045260246000fd5b60200260200101519050600085838151811061042c57634e487b7160e01b600052603260045260246000fd5b602090810291909101810151600084815280835260408082206001600160a01b038e16835290935291909120549091508181101561047c5760405162461bcd60e51b81526004016101f3906118b7565b6104868282611ad8565b60008085815260200190815260200160002060008c6001600160a01b03166001600160a01b03168152602001908152602001600020819055508160008085815260200190815260200160002060008b6001600160a01b03166001600160a01b0316815260200190815260200160002060008282546105049190611a81565b925050819055505050508061051890611b2a565b90506103d5565b50846001600160a01b0316866001600160a01b0316826001600160a01b03167f4a39dc06d4c0dbc64b70af90fd698a233a518aa5d07e595d983b8c0526c8f7fb878760405161056f929190611636565b60405180910390a4610585818787878787610ab3565b505050505050565b8151845114801561059f575080518451145b6105bb5760405162461bcd60e51b81526004016101f3906117a0565b6105d685858560405180602001604052806000815250610bc1565b60005b845181101561058557600082828151811061060457634e487b7160e01b600052603260045260246000fd5b602002602001015111156106925761069285828151811061063557634e487b7160e01b600052603260045260246000fd5b602002602001015184838151811061065d57634e487b7160e01b600052603260045260246000fd5b602002602001015184848151811061068557634e487b7160e01b600052603260045260246000fd5b6020026020010151610d42565b8061069c81611b2a565b9150506105d9565b606081518351146106c75760405162461bcd60e51b81526004016101f39061194a565b6000835167ffffffffffffffff8111156106f157634e487b7160e01b600052604160045260246000fd5b60405190808252806020026020018201604052801561071a578160200160208202803683370190505b50905060005b84518110156107bc5761078185828151811061074c57634e487b7160e01b600052603260045260246000fd5b602002602001015185838151811061077457634e487b7160e01b600052603260045260246000fd5b60200260200101516101cb565b8282815181106107a157634e487b7160e01b600052603260045260246000fd5b60209081029190910101526107b581611b2a565b9050610720565b509392505050565b816001600160a01b03166107d6610aae565b6001600160a01b031614156107fd5760405162461bcd60e51b81526004016101f390611901565b806001600061080a610aae565b6001600160a01b03908116825260208083019390935260409182016000908120918716808252919093529120805460ff19169215159290921790915561084e610aae565b6001600160a01b03167f17307eab39ab6107e8899845ad3d59bd9653f200f220920489ca2b5937696c31836040516108869190611664565b60405180910390a35050565b6108ad85858560405180602001604052806000815250610dc4565b80156108be576108be848383610d42565b5050505050565b6001600160a01b03918216600090815260016020908152604080832093909416825291909152205460ff1690565b6001600160a01b0384166109195760405162461bcd60e51b81526004016101f390611820565b610921610aae565b6001600160a01b0316856001600160a01b031614806109475750610947856101b3610aae565b6109635760405162461bcd60e51b81526004016101f3906117d7565b600061096d610aae565b905061098d81878761097e88610ea4565b61098788610ea4565b87610585565b6000848152602081815260408083206001600160a01b038a168452909152902054838110156109ce5760405162461bcd60e51b81526004016101f3906118b7565b6109d88482611ad8565b6000868152602081815260408083206001600160a01b038c81168552925280832093909355881681529081208054869290610a14908490611a81565b92505081905550856001600160a01b0316876001600160a01b0316836001600160a01b03167fc3d58168c5ae7397731d063d5bbf3d657854427343f4c083240f7aacaa2d0f628888604051610a6a929190611a25565b60405180910390a4610a80828888888888610efd565b50505050505050565b60006001600160e01b0319821663152a902d60e11b148061022d575061022d82610fce565b335b90565b610ac5846001600160a01b031661100e565b156105855760405163bc197c8160e01b81526001600160a01b0385169063bc197c8190610afe9089908990889088908890600401611567565b602060405180830381600087803b158015610b1857600080fd5b505af1925050508015610b48575060408051601f3d908101601f19168201909252610b459181019061148d565b60015b610b9157610b54611b77565b80610b5f5750610b79565b8060405162461bcd60e51b81526004016101f3919061166f565b60405162461bcd60e51b81526004016101f390611682565b6001600160e01b0319811663bc197c8160e01b14610a805760405162461bcd60e51b81526004016101f3906116d6565b6001600160a01b038416610be75760405162461bcd60e51b81526004016101f3906119db565b8151835114610c085760405162461bcd60e51b81526004016101f390611993565b6000610c12610aae565b9050610c2381600087878787610585565b60005b8451811015610cda57838181518110610c4f57634e487b7160e01b600052603260045260246000fd5b6020026020010151600080878481518110610c7a57634e487b7160e01b600052603260045260246000fd5b602002602001015181526020019081526020016000206000886001600160a01b03166001600160a01b031681526020019081526020016000206000828254610cc29190611a81565b90915550819050610cd281611b2a565b915050610c26565b50846001600160a01b031660006001600160a01b0316826001600160a01b03167f4a39dc06d4c0dbc64b70af90fd698a233a518aa5d07e595d983b8c0526c8f7fb8787604051610d2b929190611636565b60405180910390a46108be81600087878787610ab3565b612710811115610d645760405162461bcd60e51b81526004016101f39061171e565b6040805180820182526001600160a01b03938416815262ffffff928316602080830191825260009687526003905291909420935184549151909216600160a01b0262ffffff60a01b19929093166001600160a01b03199091161716179055565b6001600160a01b038416610dea5760405162461bcd60e51b81526004016101f3906119db565b6000610df4610aae565b9050610e068160008761097e88610ea4565b6000848152602081815260408083206001600160a01b038916845290915281208054859290610e36908490611a81565b92505081905550846001600160a01b031660006001600160a01b0316826001600160a01b03167fc3d58168c5ae7397731d063d5bbf3d657854427343f4c083240f7aacaa2d0f628787604051610e8d929190611a25565b60405180910390a46108be81600087878787610efd565b60408051600180825281830190925260609160009190602080830190803683370190505090508281600081518110610eec57634e487b7160e01b600052603260045260246000fd5b602090810291909101015292915050565b610f0f846001600160a01b031661100e565b156105855760405163f23a6e6160e01b81526001600160a01b0385169063f23a6e6190610f4890899089908890889088906004016115c5565b602060405180830381600087803b158015610f6257600080fd5b505af1925050508015610f92575060408051601f3d908101601f19168201909252610f8f9181019061148d565b60015b610f9e57610b54611b77565b6001600160e01b0319811663f23a6e6160e01b14610a805760405162461bcd60e51b81526004016101f3906116d6565b60006001600160e01b03198216636cdb3d1360e11b1480610fff57506001600160e01b031982166303a24d0760e21b145b8061022d575061022d82611014565b3b151590565b6001600160e01b031981166301ffc9a760e01b14919050565b80356001600160a01b038116811461023057600080fd5b600082601f830112611054578081fd5b8135602061106961106483611a5d565b611a33565b8281528181019085830183850287018401881015611085578586fd5b855b858110156110aa576110988261102d565b84529284019290840190600101611087565b5090979650505050505050565b600082601f8301126110c7578081fd5b813560206110d761106483611a5d565b82815281810190858301838502870184018810156110f3578586fd5b855b858110156110aa578135845292840192908401906001016110f5565b600082601f830112611121578081fd5b813567ffffffffffffffff81111561113b5761113b611b5b565b61114e601f8201601f1916602001611a33565b818152846020838601011115611162578283fd5b816020850160208301379081016020019190915292915050565b6000806040838503121561118e578182fd5b6111978361102d565b91506111a56020840161102d565b90509250929050565b600080600080600060a086880312156111c5578081fd5b6111ce8661102d565b94506111dc6020870161102d565b9350604086013567ffffffffffffffff808211156111f8578283fd5b61120489838a016110b7565b94506060880135915080821115611219578283fd5b61122589838a016110b7565b9350608088013591508082111561123a578283fd5b5061124788828901611111565b9150509295509295909350565b600080600080600060a0868803121561126b578081fd5b6112748661102d565b94506112826020870161102d565b93506040860135925060608601359150608086013567ffffffffffffffff8111156112ab578182fd5b61124788828901611111565b600080600080600060a086880312156112ce578081fd5b6112d78661102d565b9450602086013567ffffffffffffffff808211156112f3578283fd5b6112ff89838a016110b7565b95506040880135915080821115611314578283fd5b61132089838a016110b7565b94506060880135915080821115611335578283fd5b61134189838a01611044565b93506080880135915080821115611356578283fd5b50611247888289016110b7565b60008060408385031215611375578182fd5b61137e8361102d565b915060208301358015158114611392578182fd5b809150509250929050565b600080604083850312156113af578182fd5b6113b88361102d565b946020939093013593505050565b600080600080600060a086880312156113dd578081fd5b6113e68661102d565b945060208601359350604086013592506114026060870161102d565b949793965091946080013592915050565b60008060408385031215611425578182fd5b823567ffffffffffffffff8082111561143c578384fd5b61144886838701611044565b9350602085013591508082111561145d578283fd5b5061031d858286016110b7565b60006020828403121561147b578081fd5b813561148681611c1c565b9392505050565b60006020828403121561149e578081fd5b815161148681611c1c565b6000602082840312156114ba578081fd5b5035919050565b600080604083850312156114d3578182fd5b50508035926020909101359150565b6000815180845260208085019450808401835b83811015611511578151875295820195908201906001016114f5565b509495945050505050565b60008151808452815b8181101561154157602081850181015186830182015201611525565b818111156115525782602083870101525b50601f01601f19169290920160200192915050565b6001600160a01b0386811682528516602082015260a060408201819052600090611593908301866114e2565b82810360608401526115a581866114e2565b905082810360808401526115b9818561151c565b98975050505050505050565b6001600160a01b03868116825285166020820152604081018490526060810183905260a0608082018190526000906115ff9083018461151c565b979650505050505050565b6001600160a01b03929092168252602082015260400190565b60006020825261148660208301846114e2565b60006040825261164960408301856114e2565b828103602084015261165b81856114e2565b95945050505050565b901515815260200190565b600060208252611486602083018461151c565b60208082526034908201527f455243313135353a207472616e7366657220746f206e6f6e20455243313135356040820152732932b1b2b4bb32b91034b6b83632b6b2b73a32b960611b606082015260800190565b60208082526028908201527f455243313135353a204552433131353552656365697665722072656a656374656040820152676420746f6b656e7360c01b606082015260800190565b6020808252601a908201527f45524332393831526f79616c746965733a20546f6f2068696768000000000000604082015260600190565b6020808252602b908201527f455243313135353a2062616c616e636520717565727920666f7220746865207a60408201526a65726f206164647265737360a81b606082015260800190565b6020808252601f908201527f455243313135353a20417272617973206c656e677468206d69736d6174636800604082015260600190565b60208082526029908201527f455243313135353a2063616c6c6572206973206e6f74206f776e6572206e6f7260408201526808185c1c1c9bdd995960ba1b606082015260800190565b60208082526025908201527f455243313135353a207472616e7366657220746f20746865207a65726f206164604082015264647265737360d81b606082015260800190565b60208082526032908201527f455243313135353a207472616e736665722063616c6c6572206973206e6f74206040820152711bdddb995c881b9bdc88185c1c1c9bdd995960721b606082015260800190565b6020808252602a908201527f455243313135353a20696e73756666696369656e742062616c616e636520666f60408201526939103a3930b739b332b960b11b606082015260800190565b60208082526029908201527f455243313135353a2073657474696e6720617070726f76616c20737461747573604082015268103337b91039b2b63360b91b606082015260800190565b60208082526029908201527f455243313135353a206163636f756e747320616e6420696473206c656e677468604082015268040dad2e6dac2e8c6d60bb1b606082015260800190565b60208082526028908201527f455243313135353a2069647320616e6420616d6f756e7473206c656e677468206040820152670dad2e6dac2e8c6d60c31b606082015260800190565b60208082526021908201527f455243313135353a206d696e7420746f20746865207a65726f206164647265736040820152607360f81b606082015260800190565b90815260200190565b918252602082015260400190565b60405181810167ffffffffffffffff81118282101715611a5557611a55611b5b565b604052919050565b600067ffffffffffffffff821115611a7757611a77611b5b565b5060209081020190565b60008219821115611a9457611a94611b45565b500190565b600082611ab457634e487b7160e01b81526012600452602481fd5b500490565b6000816000190483118215151615611ad357611ad3611b45565b500290565b600082821015611aea57611aea611b45565b500390565b600281046001821680611b0357607f821691505b60208210811415611b2457634e487b7160e01b600052602260045260246000fd5b50919050565b6000600019821415611b3e57611b3e611b45565b5060010190565b634e487b7160e01b600052601160045260246000fd5b634e487b7160e01b600052604160045260246000fd5b60e01c90565b600060443d1015611b8757610ab0565b600481823e6308c379a0611b9b8251611b71565b14611ba557610ab0565b6040513d600319016004823e80513d67ffffffffffffffff8160248401118184111715611bd55750505050610ab0565b82840192508251915080821115611bef5750505050610ab0565b503d83016020828401011115611c0757505050610ab0565b601f01601f1916810160200160405291505090565b6001600160e01b031981168114611c3257600080fd5b5056fea26469706673582212209f7db8d90ac80df61fe1927101bdd951111b92c4ee39fa7ee6bba76a8167509164736f6c63430008000033",
  "linkReferences": {},
  "deployedLinkReferences": {}
}